{
  "contractName": "SponsorAdvertising",
  "abi": [
    {
      "inputs": [
        {
          "internalType": "string",
          "name": "_name",
          "type": "string"
        },
        {
          "internalType": "string",
          "name": "_description",
          "type": "string"
        },
        {
          "internalType": "uint256",
          "name": "_paymentPerThousandViews",
          "type": "uint256"
        }
      ],
      "stateMutability": "nonpayable",
      "type": "constructor"
    },
    {
      "inputs": [],
      "name": "advertisement",
      "outputs": [
        {
          "internalType": "string",
          "name": "name",
          "type": "string"
        },
        {
          "internalType": "string",
          "name": "description",
          "type": "string"
        },
        {
          "internalType": "uint256",
          "name": "paymentPerThousandViews",
          "type": "uint256"
        }
      ],
      "stateMutability": "view",
      "type": "function",
      "constant": true
    },
    {
      "inputs": [],
      "name": "channelLink",
      "outputs": [
        {
          "internalType": "string",
          "name": "",
          "type": "string"
        }
      ],
      "stateMutability": "view",
      "type": "function",
      "constant": true
    },
    {
      "inputs": [],
      "name": "contentCreatorWallet",
      "outputs": [
        {
          "internalType": "address payable",
          "name": "",
          "type": "address"
        }
      ],
      "stateMutability": "view",
      "type": "function",
      "constant": true
    },
    {
      "inputs": [],
      "name": "currentState",
      "outputs": [
        {
          "internalType": "enum SponsorAdvertising.State",
          "name": "",
          "type": "uint8"
        }
      ],
      "stateMutability": "view",
      "type": "function",
      "constant": true
    },
    {
      "inputs": [],
      "name": "sponsor",
      "outputs": [
        {
          "internalType": "address",
          "name": "",
          "type": "address"
        }
      ],
      "stateMutability": "view",
      "type": "function",
      "constant": true
    },
    {
      "inputs": [],
      "name": "videoLink",
      "outputs": [
        {
          "internalType": "string",
          "name": "",
          "type": "string"
        }
      ],
      "stateMutability": "view",
      "type": "function",
      "constant": true
    },
    {
      "inputs": [
        {
          "internalType": "string",
          "name": "_channelLink",
          "type": "string"
        }
      ],
      "name": "addChannelLink",
      "outputs": [],
      "stateMutability": "nonpayable",
      "type": "function"
    },
    {
      "inputs": [],
      "name": "approveChannel",
      "outputs": [],
      "stateMutability": "nonpayable",
      "type": "function"
    },
    {
      "inputs": [],
      "name": "rejectChannel",
      "outputs": [],
      "stateMutability": "nonpayable",
      "type": "function"
    },
    {
      "inputs": [
        {
          "internalType": "string",
          "name": "_videoLink",
          "type": "string"
        }
      ],
      "name": "addVideoLink",
      "outputs": [],
      "stateMutability": "nonpayable",
      "type": "function"
    },
    {
      "inputs": [],
      "name": "approveVideo",
      "outputs": [],
      "stateMutability": "nonpayable",
      "type": "function"
    },
    {
      "inputs": [],
      "name": "rejectVideo",
      "outputs": [],
      "stateMutability": "nonpayable",
      "type": "function"
    }
  ],
  "bytecode": "0x60806040523480156200001157600080fd5b50604051620010cd380380620010cd833981810160405260608110156200003757600080fd5b81019080805160405193929190846401000000008211156200005857600080fd5b838201915060208201858111156200006f57600080fd5b82518660018202830111640100000000821117156200008d57600080fd5b8083526020830192505050908051906020019080838360005b83811015620000c3578082015181840152602081019050620000a6565b50505050905090810190601f168015620000f15780820380516001836020036101000a031916815260200191505b50604052602001805160405193929190846401000000008211156200011557600080fd5b838201915060208201858111156200012c57600080fd5b82518660018202830111640100000000821117156200014a57600080fd5b8083526020830192505050908051906020019080838360005b838110156200018057808201518184015260208101905062000163565b50505050905090810190601f168015620001ae5780820380516001836020036101000a031916815260200191505b5060405260200180519060200190929190505050336000806101000a81548173ffffffffffffffffffffffffffffffffffffffff021916908373ffffffffffffffffffffffffffffffffffffffff1602179055506000600160146101000a81548160ff021916908360038111156200022257fe5b0217905550604051806060016040528084815260200183815260200182815250600460008201518160000190805190602001906200026292919062000298565b5060208201518160010190805190602001906200028192919062000298565b506040820151816002015590505050505062000347565b828054600181600116156101000203166002900490600052602060002090601f016020900481019282601f10620002db57805160ff19168380011785556200030c565b828001600101855582156200030c579182015b828111156200030b578251825591602001919060010190620002ee565b5b5090506200031b91906200031f565b5090565b6200034491905b808211156200034057600081600090555060010162000326565b5090565b90565b610d7680620003576000396000f3fe608060405234801561001057600080fd5b50600436106100b45760003560e01c806377c936621161007157806377c936621461028157806391724e49146102cb578063a715d9bf146102d5578063b634fd74146103cb578063cbc5740f14610486578063e12afc1b14610490576100b4565b80630c3f6acf146100b957806323bcb788146100e55780634798f0f9146101a05780634f0af9c9146102235780635a71160f1461022d5780636bdd2c2e14610277575b600080fd5b6100c1610513565b604051808260038111156100d157fe5b60ff16815260200191505060405180910390f35b61019e600480360360208110156100fb57600080fd5b810190808035906020019064010000000081111561011857600080fd5b82018360208201111561012a57600080fd5b8035906020019184600183028401116401000000008311171561014c57600080fd5b91908080601f016020809104026020016040519081016040528093929190818152602001838380828437600081840152601f19601f820116905080830192505050505050509192919290505050610526565b005b6101a86105d6565b6040518080602001828103825283818151815260200191508051906020019080838360005b838110156101e85780820151818401526020810190506101cd565b50505050905090810190601f1680156102155780820380516001836020036101000a031916815260200191505b509250505060405180910390f35b61022b610674565b005b610235610725565b604051808273ffffffffffffffffffffffffffffffffffffffff1673ffffffffffffffffffffffffffffffffffffffff16815260200191505060405180910390f35b61027f61074b565b005b6102896107fc565b604051808273ffffffffffffffffffffffffffffffffffffffff1673ffffffffffffffffffffffffffffffffffffffff16815260200191505060405180910390f35b6102d3610821565b005b6102dd6108d2565b604051808060200180602001848152602001838103835286818151815260200191508051906020019080838360005b8381101561032757808201518184015260208101905061030c565b50505050905090810190601f1680156103545780820380516001836020036101000a031916815260200191505b50838103825285818151815260200191508051906020019080838360005b8381101561038d578082015181840152602081019050610372565b50505050905090810190601f1680156103ba5780820380516001836020036101000a031916815260200191505b509550505050505060405180910390f35b610484600480360360208110156103e157600080fd5b81019080803590602001906401000000008111156103fe57600080fd5b82018360208201111561041057600080fd5b8035906020019184600183028401116401000000008311171561043257600080fd5b91908080601f016020809104026020016040519081016040528093929190818152602001838380828437600081840152601f19601f820116905080830192505050505050509192919290505050610a1a565b005b61048e610ae4565b005b610498610bfd565b6040518080602001828103825283818151815260200191508051906020019080838360005b838110156104d85780820151818401526020810190506104bd565b50505050905090810190601f1680156105055780820380516001836020036101000a031916815260200191505b509250505060405180910390f35b600160149054906101000a900460ff1681565b6000600381111561053357fe5b600160149054906101000a900460ff16600381111561054e57fe5b1461055857600080fd5b806002908051906020019061056e929190610c9b565b5060018060146101000a81548160ff0219169083600381111561058d57fe5b021790555033600160006101000a81548173ffffffffffffffffffffffffffffffffffffffff021916908373ffffffffffffffffffffffffffffffffffffffff16021790555050565b60038054600181600116156101000203166002900480601f01602080910402602001604051908101604052809291908181526020018280546001816001161561010002031660029004801561066c5780601f106106415761010080835404028352916020019161066c565b820191906000526020600020905b81548152906001019060200180831161064f57829003601f168201915b505050505081565b6000809054906101000a900473ffffffffffffffffffffffffffffffffffffffff1673ffffffffffffffffffffffffffffffffffffffff163373ffffffffffffffffffffffffffffffffffffffff16146106cd57600080fd5b600260038111156106da57fe5b600160149054906101000a900460ff1660038111156106f557fe5b146106ff57600080fd5b6002600160146101000a81548160ff0219169083600381111561071e57fe5b0217905550565b600160009054906101000a900473ffffffffffffffffffffffffffffffffffffffff1681565b6000809054906101000a900473ffffffffffffffffffffffffffffffffffffffff1673ffffffffffffffffffffffffffffffffffffffff163373ffffffffffffffffffffffffffffffffffffffff16146107a457600080fd5b600160038111156107b157fe5b600160149054906101000a900460ff1660038111156107cc57fe5b146107d657600080fd5b6002600160146101000a81548160ff021916908360038111156107f557fe5b0217905550565b6000809054906101000a900473ffffffffffffffffffffffffffffffffffffffff1681565b6000809054906101000a900473ffffffffffffffffffffffffffffffffffffffff1673ffffffffffffffffffffffffffffffffffffffff163373ffffffffffffffffffffffffffffffffffffffff161461087a57600080fd5b6002600381111561088757fe5b600160149054906101000a900460ff1660038111156108a257fe5b146108ac57600080fd5b6003600160146101000a81548160ff021916908360038111156108cb57fe5b0217905550565b6004806000018054600181600116156101000203166002900480601f01602080910402602001604051908101604052809291908181526020018280546001816001161561010002031660029004801561096c5780601f106109415761010080835404028352916020019161096c565b820191906000526020600020905b81548152906001019060200180831161094f57829003601f168201915b505050505090806001018054600181600116156101000203166002900480601f016020809104026020016040519081016040528092919081815260200182805460018160011615610100020316600290048015610a0a5780601f106109df57610100808354040283529160200191610a0a565b820191906000526020600020905b8154815290600101906020018083116109ed57829003601f168201915b5050505050908060020154905083565b600160009054906101000a900473ffffffffffffffffffffffffffffffffffffffff1673ffffffffffffffffffffffffffffffffffffffff163373ffffffffffffffffffffffffffffffffffffffff1614610a7457600080fd5b60026003811115610a8157fe5b600160149054906101000a900460ff166003811115610a9c57fe5b14610aa657600080fd5b8060039080519060200190610abc929190610c9b565b506002600160146101000a81548160ff02191690836003811115610adc57fe5b021790555050565b6000809054906101000a900473ffffffffffffffffffffffffffffffffffffffff1673ffffffffffffffffffffffffffffffffffffffff163373ffffffffffffffffffffffffffffffffffffffff1614610b3d57600080fd5b60016003811115610b4a57fe5b600160149054906101000a900460ff166003811115610b6557fe5b14610b6f57600080fd5b6040518060200160405280600081525060029080519060200190610b94929190610c9b565b506000600160006101000a81548173ffffffffffffffffffffffffffffffffffffffff021916908373ffffffffffffffffffffffffffffffffffffffff1602179055506000600160146101000a81548160ff02191690836003811115610bf657fe5b0217905550565b60028054600181600116156101000203166002900480601f016020809104026020016040519081016040528092919081815260200182805460018160011615610100020316600290048015610c935780601f10610c6857610100808354040283529160200191610c93565b820191906000526020600020905b815481529060010190602001808311610c7657829003601f168201915b505050505081565b828054600181600116156101000203166002900490600052602060002090601f016020900481019282601f10610cdc57805160ff1916838001178555610d0a565b82800160010185558215610d0a579182015b82811115610d09578251825591602001919060010190610cee565b5b509050610d179190610d1b565b5090565b610d3d91905b80821115610d39576000816000905550600101610d21565b5090565b9056fea264697066735822122043a7b2526f335cf0908a694bea3ee910d4143a1083bce6f8b34fb4b620caa5c964736f6c63430006020033",
  "source": "pragma solidity 0.6.2;\r\n\r\ncontract SponsorAdvertising {\r\n    address public sponsor;\r\n    address payable public contentCreatorWallet;\r\n    enum State {INITIAL, CHANNEL_WAITING, VIDEO_WAITING, APPROVE}\r\n\r\n    State public currentState;\r\n    string public channelLink;\r\n    string public videoLink;\r\n\r\n    struct Advertisement {\r\n        string name;\r\n        string description;\r\n        uint256 paymentPerThousandViews;\r\n    }\r\n\r\n    Advertisement public advertisement;\r\n\r\n    modifier onlySponsor() {\r\n        require(msg.sender == sponsor);\r\n        _;\r\n    }\r\n\r\n    modifier onlyContentCreator() {\r\n        require(msg.sender == contentCreatorWallet);\r\n        _;\r\n    }\r\n\r\n    modifier onlyInitialState() {\r\n        require(currentState == State.INITIAL);\r\n        _;\r\n    }\r\n\r\n    modifier onlyChannelWaitingState() {\r\n        require(currentState == State.CHANNEL_WAITING);\r\n        _;\r\n    }\r\n\r\n    modifier onlyVideoWaitingState() {\r\n        require(currentState == State.VIDEO_WAITING);\r\n        _;\r\n    }\r\n\r\n    constructor(\r\n        string memory _name,\r\n        string memory _description,\r\n        uint256 _paymentPerThousandViews\r\n    ) public {\r\n        sponsor = msg.sender;\r\n        currentState = State.INITIAL;\r\n        advertisement = Advertisement(\r\n            _name,\r\n            _description,\r\n            _paymentPerThousandViews\r\n        );\r\n    }\r\n\r\n    function addChannelLink(string memory _channelLink)\r\n        public\r\n        onlyInitialState\r\n    {\r\n        channelLink = _channelLink;\r\n        currentState = State.CHANNEL_WAITING;\r\n        contentCreatorWallet = msg.sender;\r\n    }\r\n\r\n    function approveChannel() public onlySponsor onlyChannelWaitingState {\r\n        currentState = State.VIDEO_WAITING;\r\n    }\r\n\r\n    function rejectChannel() public onlySponsor onlyChannelWaitingState {\r\n        channelLink = \"\";\r\n        contentCreatorWallet = address(0x0);\r\n        currentState = State.INITIAL;\r\n    }\r\n\r\n    function addVideoLink(string memory _videoLink)\r\n        public\r\n        onlyContentCreator\r\n        onlyVideoWaitingState\r\n    {\r\n        videoLink = _videoLink;\r\n        currentState = State.VIDEO_WAITING;\r\n    }\r\n\r\n    function approveVideo() public onlySponsor onlyVideoWaitingState {\r\n        currentState = State.APPROVE;\r\n    }\r\n\r\n    function rejectVideo() public onlySponsor onlyVideoWaitingState {\r\n        currentState = State.VIDEO_WAITING;\r\n    }\r\n}\r\n",
  "sourcePath": "C:/Users/rhnsaxena/Downloads/CryptoTicketing-main/CryptoTicketing-main/contracts/SponsorAdvertising.sol",
  "compiler": {
    "name": "solc",
    "version": "0.6.2+commit.bacdbe57.Emscripten.clang"
  },
  "schemaVersion": "3.2.5",
  "updatedAt": "2020-12-20T12:15:18.105Z",
  "networkType": "ethereum",
  "devdoc": {
    "methods": {}
  },
  "userdoc": {
    "methods": {}
  }
}